:020000040800F2
:10000000500400209D010008F30D0008930C000827
:10001000F10D0008A90200082910000800000000E6
:10002000000000000000000000000000F70D0008C4
:10003000AB02000800000000F50D0008F90D0008F3
:10004000B7010008B7010008B7010008B7010008B0
:10005000B7010008B7010008B7010008B7010008A0
:10006000B7010008B7010008B7010008B701000890
:10007000B7010008B7010008B7010008B701000880
:10008000B7010008B7010008B7010008B701000870
:10009000B7010008B7010008B7010008B701000860
:1000A000B7010008B7010008B7010008B701000850
:1000B000B7010008B7010008B7010008B701000840
:1000C000B7010008B7010008B7010008B701000830
:1000D000B7010008B7010008B7010008B701000820
:1000E000B7010008B7010008B7010008B701000810
:1000F000B7010008B7010008B7010008B701000800
:10010000B7010008B7010008B7010008B7010008EF
:10011000B7010008B7010008B7010008B7010008DF
:10012000B7010008B7010008B7010008B7010008CF
:10013000B7010008B7010008B7010008B7010008BF
:10014000B7010008B7010008B7010008B7010008AF
:10015000B7010008B7010008B7010008B70100089F
:10016000B7010008B7010008B7010008B70100088F
:10017000B7010008B7010008B7010008000000003F
:10018000B7010008B7010008DFF80CD000F07AF8DA
:1001900000480047691000085004002006488047C6
:1001A00006480047FEE7FEE7FEE7FEE7FEE7FEE75C
:1001B000FEE7FEE7FEE7FEE7810E00088901000882
:1001C0002DE9F05F0546002092469B46884606468C
:1001D000814640241BE0284641464746224600F01F
:1001E00041F853465A46C01A914110D31146184659
:1001F000224600F028F82D1A67EB01084F462246E8
:100200000120002100F01FF817EB00094E41201ECD
:10021000A4F10104DFDC484631462A464346BDE8E6
:10022000F09FD2B201E000F8012B491EFBD27047CB
:100230000022F6E710B513460A4604461946FFF7B2
:10024000F0FF204610BD202A04DB203A00FA02F11C
:10025000002070479140C2F1200320FA03F31943B4
:1002600090407047202A04DB203A21FA02F0002156
:10027000704721FA02F3D040C2F1200291400843B6
:1002800019467047064C074D06E0E06840F0010350
:1002900094E8070098471034AC42F6D3FFF778FF94
:1002A000C0100008E0100008FEE77047704700002B
:1002B00070B5044600F0EAF80546601C02D0044818
:1002C0000078044400F0E2F8401BA042FAD370BD6D
:1002D000000000202DE9F84F00224FF0010803250F
:1002E0004FF00F0E0B6808FA02F42340A3426ED1C0
:1002F0004E68012E05D0022E03D0112E01D0122EF1
:1003000012D186684FEA420C05FA0CF7BE43CF685B
:1003100007FA0CF7374387604668A6430C79C4F3A5
:100320000014944034434460C668570005FA07FC43
:100330008C6826EA0C06BC403443C4604C68022C2E
:1003400001D0122C13D1D40800EB8404A346D4F8B6
:10035000209054074FEAD46A0EFA0AF629EA0609F1
:100360000E6906FA0AF646EA0906CBF82060066826
:100370000C7926EA0C0604F00304BC403443046004
:100380004C68E40065D5364C266846F48046266005
:10039000246822F0030604F480440094314C344471
:1003A000A446D4F808489607370F0EFA07F6B44368
:1003B0002D4EB04201D1002624E02C4EB04201D196
:1003C00001261FE02A4EB04202D102261AE040E088
:1003D000284EB04201D1032614E0274EB04201D18D
:1003E00004260FE0254EB04201D105260AE0244E36
:1003F000B04201D1062605E0224EB04201D10726C7
:1004000000E00826BE402643CCF808681E4E34683B
:100410004F689C43FF0300D51C4334601A4C241DD5
:1004200026684F689E43BF0300D51E432660164EC4
:10043000083634684F689C43FF0200D51C43346083
:10044000114E0C3634684F689C43BF0200D51C43E4
:100450003460521C102AFFF445AFBDE8F88F00004D
:1004600044380240003001400000024000040240D5
:1004700000080240000C024000100240001402403C
:1004800000180240001C0240003C01400148806806
:100490007047000000000020024881680278114483
:1004A00081607047000000200B4810B5016841F4DE
:1004B00000710160016841F480610160016841F4EC
:1004C00080710160032000F061F8002000F006F860
:1004D00000F024F8002010BD003C024070B50D4D26
:1004E00004464FF47A712878B1FBF0F00A490968A4
:1004F000B1FBF0F000F0F4FA48B9102C07D200225A
:100500002146501E00F022F800206C6070BD0120D2
:1005100070BD0000000000200C0000200A4808B553
:10052000016841F480410160006800F4804000905F
:100530000548001F016841F080510160006800F02B
:100540008050009008BD000044380240F0B40E4BCB
:100550001B680C46C3F30223C3F10705042D00D921
:100560000425191D072901D2002300E0DB1E012606
:1005700006FA05F1491E214099409E40761E16401C
:100580003143F0BC00F051BD0CED00E0064900F035
:10059000070208684FF6FF03184040EA0220034AAA
:1005A00010430860704700000CED00E00000FA0501
:1005B0002DE9F0470E46050065D0DFF81481D8F824
:1005C0000000F7B200F00F00B04207D288F80070C8
:1005D000D8F8000000F00F00B04254D128683D4C1C
:1005E000810712D5400703D5206840F4E050206011
:1005F0002878000703D5206840F460402060206818
:10060000A96820F0F000084320602878C0072DD0AA
:10061000304968680839012812D0022813D003280D
:1006200011D00968890700292DDA216821F003011A
:1006300001432160FFF72AFF814641F2883A0EE02C
:1006400009688903EFE709688901ECE7FFF71EFFF6
:10065000A0EB0901514502D90320BDE8F0872068CD
:10066000696800F00C00B0EB810FEFD1D8F80010F2
:10067000404601F00F01B14207D90770006800F051
:100680000F00B04201D00120E7E72878400705D5E8
:100690002068E96820F4E0500843206028780007CB
:1006A00006D52068296920F4604040EAC100206036
:1006B00000F038F82168084AC1F30311515CC840C2
:1006C0000649086006480068FFF708FF0020C4E7F5
:1006D000003C024008380240A81000080C0000202E
:1006E000040000200448054900680968044AC1F371
:1006F0008221515CC84070470C000020083802403D
:10070000B81000080448054900680968044AC1F3A4
:100710004231515CC84070470C000020083802404C
:10072000B8100008154810B5006810F00C02144805
:1007300013D04110042A0FD0082A0ED10F4C241FC9
:100740002268236802F03F025B0207D52068C0F3ED
:100750008810A0FB010106E0084610BD2168C1F326
:100760008811A1FB00010023FFF72AFD2168C1F3D6
:100770000141491C4900B0FBF1F010BD08380240AE
:100780000024F4002DE9F84F040076D02078DFF83B
:1007900038A3CE4DC00749D0DAF800105046C1F357
:1007A0008101012908D00068C0F3810002280AD124
:1007B000281D0068400206D52868800336D5606889
:1007C0000028E2D032E06068B0F5803F10D0B0F58C
:1007D000A02F286810D020F480302860286820F4EA
:1007E000802028606068A0B1FFF750FE06460CE04C
:1007F000286840F48030F4E740F480202860F7E770
:10080000FFF744FE801B642873D828688003F7D55F
:100810000CE0FFF73BFE064605E000BFFFF736FEA3
:10082000801B6428F0D828688003F7D42078DFF88C
:10083000A08280074FF000093ED5DAF8001050463C
:1008400011F00C0F09D00068C0F3810002280BD111
:100850009D48001F0068400206D42868800715D50F
:10086000E068012809D111E0E068B8B10120C8F8BA
:100870000000FFF70BFE064605E020E1FFF706FE4D
:10088000801B0228C0D828688007F7D5286821690E
:1008900020F0F80040EAC10028600DE0C8F80090A0
:1008A000FFF7F4FD064604E0FFF7F0FD801B022889
:1008B0001FD828688007F7D42078000722D5824EF9
:1008C000844861696C3671B101210160FFF7DEFD7A
:1008D000074604E0FFF7DAFDC01B022809D830689C
:1008E0008007F7D50EE0C0F80090FFF7CFFD074670
:1008F00005E082E0FFF7CAFDC01B02287DD8306802
:100900008007F7D42078400768D5DFF8BCB100270E
:100910000BF1380BDBF80000C0000BD4DBF8001043
:1009200041F08051CBF80010DBF80000012700F007
:1009300080500090684E3068C00510D4306840F494
:1009400080703060FFF7A2FD009005E0FFF79EFD8C
:100950000099401A022850D83068C005F6D55A4E82
:10096000A068683601280FD00528306810D020F024
:1009700001003060306820F004003060A068B8B139
:10098000FFF784FD00900FE0306840F00100F4E7CD
:1009900040F004003060F7E7FFF778FD0099411A56
:1009A00041F28830814266D830688007F4D50EE085
:1009B000FFF76CFD009007E0FFF768FD0099411A12
:1009C00041F28830814256D830688007F4D42FB184
:1009D000DBF8001021F08051CBF80010A069D0B3F3
:1009E000DAF800205146C2F38102022A4AD00228D6
:1009F000484607D0C8F8600000E03CE0FFF746FD3D
:100A000004463BE04746C8F86000FFF73FFD064656
:100A100005E000BFFFF73AFD801B02282BD82868AD
:100A20008001F7D4D4E907010843A16A2B4A490899
:100A300002EB0141626A41EA8211084394F82C10EA
:100A400040EA01612048001F016001203866FFF77D
:100A50001DFD044605E034E0FFF718FD001B0228E9
:100A600009D828688001F7D52BE000BFFFF70EFDFD
:100A7000001B022802D90320BDE8F88F28688001F6
:100A8000F4D41EE00128F7D00868E26900F4800180
:100A9000914214D1226A00F03F0191420FD147F6F2
:100AA000C071626A0140914209D1A26A00F44031EA
:100AB000914204D1E16A00F07060884201D00120C7
:100AC000DAE70020D8E7000008380240003802408A
:100AD00000004742800E4742007000400000FFFFC8
:100AE00010B5401EB0F1807F01D3012010BD4FF042
:100AF000E02460610F21601700F097FA0020A061E8
:100B000007202061002010BD70B5040004D094F8C7
:100B10003900002510B106E0012070BD84F838507E
:100B2000204600F023F8242084F839002068C168AA
:100B300021F40051C160204600F0B0F9206801693D
:100B400021F4904101612068416921F02A0141614D
:100B50002068C16841F40051C160E563202084F839
:100B6000390084F83A00002070BD000010B586B04E
:100B7000044614216846FFF75BFB1449206888424D
:100B800021D11348016841F010010160006800F0B4
:100B9000100005900E481438016841F00101016011
:100BA0000068694600F0010005904FF4C0600090B5
:100BB000022001900120029003200390072004905E
:100BC0000448FFF787FB06B010BD0000001001408D
:100BD00044380240000002402DE9F843044690F8F2
:100BE00039001F4616460D46202850D1B5B1AEB18A
:100BF00094F8380001284AD0012084F838004FF0DA
:100C00000008C4F83C80212084F83900FFF73EFC3E
:100C1000A6848146E68484F8388026E00120BDE879
:100C2000F883E08C401EE084A0684B46B0F5805FFE
:100C30004FF000024FF080012046009703D000F0F3
:100C4000C1F9E8B90DE000F0BDF9C8B928882168FC
:100C5000C0F308004860206908B16D1C05E0AD1CB8
:100C600003E0216815F8010B4860E08C0028D8D11A
:100C70004B46002240212046009700F0A3F908B11E
:100C80000320CCE7202084F839000020C7E70220A9
:100C9000C5E7FEE770B586B014216846FFF7C8FACD
:100CA0003D480024016841F010010160016801F035
:100CB00010010591016841F004010160016801F033
:100CC00004010591016841F020010160016801F013
:100CD00020010591016841F080010160016801F087
:100CE00080010591016841F001010160016801F096
:100CF00001010591016841F002010160016801F004
:100D000002010591016841F040010160016801F0B4
:100D100040010591016841F00801016000684FF64B
:100D2000FF7600F00800009605900325CDE90154F8
:100D300069461A48FFF7CEFA0096CDE90154694694
:100D40001748FFF7C7FA0096CDE9015469461548E0
:100D5000FFF7C0FA49F6FF10CDE900056946029495
:100D60001148FFF7B7FA4FF6F770CDE9000569466D
:100D700002940E48FFF7AEFA0096CDE90154694699
:100D80000B48FFF7A7FA0096CDE9015469460948D8
:100D9000FFF7A0FA06B070BD3038024000100240E4
:100DA000000802400014024000000240000402401B
:100DB00000180240000C02400C4810B50A490160BE
:100DC0004FF4E1314160002181600C22C160C0E933
:100DD00004128161C161FFF797FE002803D0BDE8CE
:100DE0001040FFF763BA10BD001001401000002052
:100DF000FEE7704770477047FFF74EBB30B593B0C2
:100E000030216846FFF714FA14210CA8FFF710FAF6
:100E100019480025016841F080510160006800F028
:100E2000805011901548016841F4804101600068CC
:100E3000022400F4804011900120009000040190F1
:100E40008001CDE9064008AA0420A82182E8130009
:100E50000B906846FFF796FC0CA90F2081E8310043
:100E60004FF4A0500F90E002109005210CA8FFF75E
:100E70009FFB13B030BD00004038024000700040BE
:100E80000548016841F47001016003494FF00060BA
:100E9000803908607047000088ED00E02DE9F041DE
:100EA000044600680169E26821F440511143016180
:100EB0002169A068E2690843616911430843216818
:100EC000CA6849F20C639A430243CA6020684169C8
:100ED000A26921F4407111434161E0691927642539
:100EE0003226B0F5004F354A354920684FF00008EA
:100EF00006D0884201D0904236D1FFF703FC35E09E
:100F0000884201D0904202D1FFF7FCFB01E0FFF7DD
:100F1000E9FB61684A18A0FB070148EB0803FFF7EB
:100F20004FF90146B0FBF5F00201B1FBF5F06FF0AF
:100F30001803584301EB800006EBC000B0FBF5F04E
:100F400000F0F80002EB4002B1FBF5F0584301EB72
:100F5000800006EBC000B0FBF5F000F00700216850
:100F600010448860BDE8F081FFF7BCFB61688B0F1F
:100F70008A00A0FB0701FFF723F90146B0FBF5F05B
:100F80006FF01802504301EB800006EB0010B0FB3D
:100F9000F5F000F0F002B1FBF5F002EB0012B1FB4E
:100FA000F5F06FF01803584301EB800006EB0010DA
:100FB000B0FBF5F000F00F00D1E700000014014095
:100FC000001001402DE9F041984617460E460446B0
:100FD000069D1DE0681C1BD02DB1FFF757FAA0EB52
:100FE0000800A84214D92068C16821F4D071C160FA
:100FF0002068416921F001014161202084F8390015
:1010000084F83A00002084F838000320BDE8F0811D
:101010002068006836EA000004D00020B842D9D029
:101020000020F3E70120F9E7FEE70907090E002891
:1010300004DB00F1E02080F80014704700F00F009E
:1010400000F1E02080F8141D704702E008C8121F6C
:1010500008C1002AFAD170477047002001E001C1A1
:10106000121F002AFBD170471CB5FFF71DFAFFF7CE
:10107000C5FEFFF70FFEFFF79FFE08A14FF47A743D
:10108000D1E90001CDE90001FF23062269460548A8
:10109000FFF7A2FD2046FFF70BF9F5E768656C6CDA
:1010A0006F000000100000200000000000000000A1
:1010B00001020304060708090000000001020304FE
:1010C000E010000800000020100000004A10000896
:1010D000F010000810000020400400005A10000822
:1010E0000100000010000000000000000024F400D7
:040000050800018965
:00000001FF
